{
  "_format": "hh-sol-artifact-1",
  "contractName": "StakingManager",
  "sourceName": "contracts/StakingManager.sol",
  "abi": [
    {
      "inputs": [
        {
          "internalType": "address",
          "name": "_ainrpToken",
          "type": "address"
        }
      ],
      "stateMutability": "nonpayable",
      "type": "constructor"
    },
    {
      "anonymous": false,
      "inputs": [
        {
          "indexed": true,
          "internalType": "address",
          "name": "agent",
          "type": "address"
        },
        {
          "indexed": false,
          "internalType": "uint256",
          "name": "amount",
          "type": "uint256"
        }
      ],
      "name": "Staked",
      "type": "event"
    },
    {
      "anonymous": false,
      "inputs": [
        {
          "indexed": true,
          "internalType": "address",
          "name": "agent",
          "type": "address"
        },
        {
          "indexed": false,
          "internalType": "uint256",
          "name": "amount",
          "type": "uint256"
        }
      ],
      "name": "Unstaked",
      "type": "event"
    },
    {
      "inputs": [],
      "name": "MIN_STAKE",
      "outputs": [
        {
          "internalType": "uint256",
          "name": "",
          "type": "uint256"
        }
      ],
      "stateMutability": "view",
      "type": "function"
    },
    {
      "inputs": [],
      "name": "ainrpToken",
      "outputs": [
        {
          "internalType": "contract IERC20",
          "name": "",
          "type": "address"
        }
      ],
      "stateMutability": "view",
      "type": "function"
    },
    {
      "inputs": [
        {
          "internalType": "address",
          "name": "agent",
          "type": "address"
        }
      ],
      "name": "getStake",
      "outputs": [
        {
          "internalType": "uint256",
          "name": "",
          "type": "uint256"
        }
      ],
      "stateMutability": "view",
      "type": "function"
    },
    {
      "inputs": [
        {
          "internalType": "uint256",
          "name": "amount",
          "type": "uint256"
        }
      ],
      "name": "stake",
      "outputs": [],
      "stateMutability": "nonpayable",
      "type": "function"
    },
    {
      "inputs": [
        {
          "internalType": "address",
          "name": "",
          "type": "address"
        }
      ],
      "name": "stakes",
      "outputs": [
        {
          "internalType": "uint256",
          "name": "",
          "type": "uint256"
        }
      ],
      "stateMutability": "view",
      "type": "function"
    },
    {
      "inputs": [
        {
          "internalType": "uint256",
          "name": "amount",
          "type": "uint256"
        }
      ],
      "name": "unstake",
      "outputs": [],
      "stateMutability": "nonpayable",
      "type": "function"
    }
  ],
  "bytecode": "0x608060405234801561001057600080fd5b50604051610a61380380610a61833981810160405281019061003291906100db565b806000806101000a81548173ffffffffffffffffffffffffffffffffffffffff021916908373ffffffffffffffffffffffffffffffffffffffff16021790555050610108565b600080fd5b600073ffffffffffffffffffffffffffffffffffffffff82169050919050565b60006100a88261007d565b9050919050565b6100b88161009d565b81146100c357600080fd5b50565b6000815190506100d5816100af565b92915050565b6000602082840312156100f1576100f0610078565b5b60006100ff848285016100c6565b91505092915050565b61094a806101176000396000f3fe608060405234801561001057600080fd5b50600436106100625760003560e01c806316934fc4146100675780632e17de7814610097578063382bf5d3146100b35780637a766460146100d1578063a694fc3a14610101578063cb1c2b5c1461011d575b600080fd5b610081600480360381019061007c919061058c565b61013b565b60405161008e91906105d2565b60405180910390f35b6100b160048036038101906100ac9190610619565b610153565b005b6100bb61031b565b6040516100c891906106a5565b60405180910390f35b6100eb60048036038101906100e6919061058c565b61033f565b6040516100f891906105d2565b60405180910390f35b61011b60048036038101906101169190610619565b610388565b005b61012561051c565b60405161013291906105d2565b60405180910390f35b60016020528060005260406000206000915090505481565b80600160003373ffffffffffffffffffffffffffffffffffffffff1673ffffffffffffffffffffffffffffffffffffffff1681526020019081526020016000205410156101d5576040517f08c379a00000000000000000000000000000000000000000000000000000000081526004016101cc9061071d565b60405180910390fd5b80600160003373ffffffffffffffffffffffffffffffffffffffff1673ffffffffffffffffffffffffffffffffffffffff1681526020019081526020016000206000828254610224919061076c565b9250508190555060008054906101000a900473ffffffffffffffffffffffffffffffffffffffff1673ffffffffffffffffffffffffffffffffffffffff1663a9059cbb33836040518363ffffffff1660e01b81526004016102869291906107af565b6020604051808303816000875af11580156102a5573d6000803e3d6000fd5b505050506040513d601f19601f820116820180604052508101906102c99190610810565b503373ffffffffffffffffffffffffffffffffffffffff167f0f5bb82176feb1b5e747e28471aa92156a04d9f3ab9f45f28e2d704232b93f758260405161031091906105d2565b60405180910390a250565b60008054906101000a900473ffffffffffffffffffffffffffffffffffffffff1681565b6000600160008373ffffffffffffffffffffffffffffffffffffffff1673ffffffffffffffffffffffffffffffffffffffff168152602001908152602001600020549050919050565b683635c9adc5dea000008110156103d4576040517f08c379a00000000000000000000000000000000000000000000000000000000081526004016103cb90610889565b60405180910390fd5b60008054906101000a900473ffffffffffffffffffffffffffffffffffffffff1673ffffffffffffffffffffffffffffffffffffffff166323b872dd3330846040518463ffffffff1660e01b8152600401610431939291906108a9565b6020604051808303816000875af1158015610450573d6000803e3d6000fd5b505050506040513d601f19601f820116820180604052508101906104749190610810565b5080600160003373ffffffffffffffffffffffffffffffffffffffff1673ffffffffffffffffffffffffffffffffffffffff16815260200190815260200160002060008282546104c491906108e0565b925050819055503373ffffffffffffffffffffffffffffffffffffffff167f9e71bc8eea02a63969f509818f2dafb9254532904319f9dbda79b67bd34a5f3d8260405161051191906105d2565b60405180910390a250565b683635c9adc5dea0000081565b600080fd5b600073ffffffffffffffffffffffffffffffffffffffff82169050919050565b60006105598261052e565b9050919050565b6105698161054e565b811461057457600080fd5b50565b60008135905061058681610560565b92915050565b6000602082840312156105a2576105a1610529565b5b60006105b084828501610577565b91505092915050565b6000819050919050565b6105cc816105b9565b82525050565b60006020820190506105e760008301846105c3565b92915050565b6105f6816105b9565b811461060157600080fd5b50565b600081359050610613816105ed565b92915050565b60006020828403121561062f5761062e610529565b5b600061063d84828501610604565b91505092915050565b6000819050919050565b600061066b6106666106618461052e565b610646565b61052e565b9050919050565b600061067d82610650565b9050919050565b600061068f82610672565b9050919050565b61069f81610684565b82525050565b60006020820190506106ba6000830184610696565b92915050565b600082825260208201905092915050565b7f4e6f7420656e6f756768207374616b6564000000000000000000000000000000600082015250565b60006107076011836106c0565b9150610712826106d1565b602082019050919050565b60006020820190508181036000830152610736816106fa565b9050919050565b7f4e487b7100000000000000000000000000000000000000000000000000000000600052601160045260246000fd5b6000610777826105b9565b9150610782836105b9565b925082820390508181111561079a5761079961073d565b5b92915050565b6107a98161054e565b82525050565b60006040820190506107c460008301856107a0565b6107d160208301846105c3565b9392505050565b60008115159050919050565b6107ed816107d8565b81146107f857600080fd5b50565b60008151905061080a816107e4565b92915050565b60006020828403121561082657610825610529565b5b6000610834848285016107fb565b91505092915050565b7f4d696e696d756d207374616b65206e6f74206d65740000000000000000000000600082015250565b60006108736015836106c0565b915061087e8261083d565b602082019050919050565b600060208201905081810360008301526108a281610866565b9050919050565b60006060820190506108be60008301866107a0565b6108cb60208301856107a0565b6108d860408301846105c3565b949350505050565b60006108eb826105b9565b91506108f6836105b9565b925082820190508082111561090e5761090d61073d565b5b9291505056fea26469706673582212209868e8ad9741ff5071cd34c441db910aaf250532ffe21925d54d48a80a24da0564736f6c63430008140033",
  "linkReferences": {},
  "deployedLinkReferences": {}
}