{"contracts/AuditLogger.sol":{"AuditLogger":{"abi":[{"anonymous":false,"inputs":[{"indexed":true,"internalType":"address","name":"agent","type":"address"},{"indexed":false,"internalType":"string","name":"action","type":"string"},{"indexed":false,"internalType":"uint256","name":"timestamp","type":"uint256"},{"indexed":false,"internalType":"bytes32","name":"dataHash","type":"bytes32"}],"name":"ActionLogged","type":"event"},{"inputs":[{"internalType":"string","name":"action","type":"string"},{"internalType":"bytes32","name":"dataHash","type":"bytes32"}],"name":"logAction","outputs":[],"stateMutability":"nonpayable","type":"function"}],"evm":{"bytecode":{"linkReferences":{},"object":"608060405234801561001057600080fd5b506102a6806100206000396000f3fe608060405234801561001057600080fd5b506004361061002b5760003560e01c8063e243bbb114610030575b600080fd5b61004a6004803603810190610045919061014a565b61004c565b005b3373ffffffffffffffffffffffffffffffffffffffff167fc7aa0176c40b2e6fba6f89dd2e11c0476bb79d148510cb70b3b2f12339cf51f4848442856040516100989493929190610230565b60405180910390a2505050565b600080fd5b600080fd5b600080fd5b600080fd5b600080fd5b60008083601f8401126100d4576100d36100af565b5b8235905067ffffffffffffffff8111156100f1576100f06100b4565b5b60208301915083600182028301111561010d5761010c6100b9565b5b9250929050565b6000819050919050565b61012781610114565b811461013257600080fd5b50565b6000813590506101448161011e565b92915050565b600080600060408486031215610163576101626100a5565b5b600084013567ffffffffffffffff811115610181576101806100aa565b5b61018d868287016100be565b935093505060206101a086828701610135565b9150509250925092565b600082825260208201905092915050565b82818337600083830152505050565b6000601f19601f8301169050919050565b60006101e783856101aa565b93506101f48385846101bb565b6101fd836101ca565b840190509392505050565b6000819050919050565b61021b81610208565b82525050565b61022a81610114565b82525050565b6000606082019050818103600083015261024b8186886101db565b905061025a6020830185610212565b6102676040830184610221565b9594505050505056fea2646970667358221220c125c35a921ddc37e1a21d978149944b5adfa6f2914be2740f2814e6c474d06b64736f6c63430008140033","opcodes":"PUSH1 0x80 PUSH1 0x40 MSTORE CALLVALUE DUP1 ISZERO PUSH2 0x10 JUMPI PUSH1 0x0 DUP1 REVERT JUMPDEST POP PUSH2 0x2A6 DUP1 PUSH2 0x20 PUSH1 0x0 CODECOPY PUSH1 0x0 RETURN INVALID PUSH1 0x80 PUSH1 0x40 MSTORE CALLVALUE DUP1 ISZERO PUSH2 0x10 JUMPI PUSH1 0x0 DUP1 REVERT JUMPDEST POP PUSH1 0x4 CALLDATASIZE LT PUSH2 0x2B JUMPI PUSH1 0x0 CALLDATALOAD PUSH1 0xE0 SHR DUP1 PUSH4 0xE243BBB1 EQ PUSH2 0x30 JUMPI JUMPDEST PUSH1 0x0 DUP1 REVERT JUMPDEST PUSH2 0x4A PUSH1 0x4 DUP1 CALLDATASIZE SUB DUP2 ADD SWAP1 PUSH2 0x45 SWAP2 SWAP1 PUSH2 0x14A JUMP JUMPDEST PUSH2 0x4C JUMP JUMPDEST STOP JUMPDEST CALLER PUSH20 0xFFFFFFFFFFFFFFFFFFFFFFFFFFFFFFFFFFFFFFFF AND PUSH32 0xC7AA0176C40B2E6FBA6F89DD2E11C0476BB79D148510CB70B3B2F12339CF51F4 DUP5 DUP5 TIMESTAMP DUP6 PUSH1 0x40 MLOAD PUSH2 0x98 SWAP5 SWAP4 SWAP3 SWAP2 SWAP1 PUSH2 0x230 JUMP JUMPDEST PUSH1 0x40 MLOAD DUP1 SWAP2 SUB SWAP1 LOG2 POP POP POP JUMP JUMPDEST PUSH1 0x0 DUP1 REVERT JUMPDEST PUSH1 0x0 DUP1 REVERT JUMPDEST PUSH1 0x0 DUP1 REVERT JUMPDEST PUSH1 0x0 DUP1 REVERT JUMPDEST PUSH1 0x0 DUP1 REVERT JUMPDEST PUSH1 0x0 DUP1 DUP4 PUSH1 0x1F DUP5 ADD SLT PUSH2 0xD4 JUMPI PUSH2 0xD3 PUSH2 0xAF JUMP JUMPDEST JUMPDEST DUP3 CALLDATALOAD SWAP1 POP PUSH8 0xFFFFFFFFFFFFFFFF DUP2 GT ISZERO PUSH2 0xF1 JUMPI PUSH2 0xF0 PUSH2 0xB4 JUMP JUMPDEST JUMPDEST PUSH1 0x20 DUP4 ADD SWAP2 POP DUP4 PUSH1 0x1 DUP3 MUL DUP4 ADD GT ISZERO PUSH2 0x10D JUMPI PUSH2 0x10C PUSH2 0xB9 JUMP JUMPDEST JUMPDEST SWAP3 POP SWAP3 SWAP1 POP JUMP JUMPDEST PUSH1 0x0 DUP2 SWAP1 POP SWAP2 SWAP1 POP JUMP JUMPDEST PUSH2 0x127 DUP2 PUSH2 0x114 JUMP JUMPDEST DUP2 EQ PUSH2 0x132 JUMPI PUSH1 0x0 DUP1 REVERT JUMPDEST POP JUMP JUMPDEST PUSH1 0x0 DUP2 CALLDATALOAD SWAP1 POP PUSH2 0x144 DUP2 PUSH2 0x11E JUMP JUMPDEST SWAP3 SWAP2 POP POP JUMP JUMPDEST PUSH1 0x0 DUP1 PUSH1 0x0 PUSH1 0x40 DUP5 DUP7 SUB SLT ISZERO PUSH2 0x163 JUMPI PUSH2 0x162 PUSH2 0xA5 JUMP JUMPDEST JUMPDEST PUSH1 0x0 DUP5 ADD CALLDATALOAD PUSH8 0xFFFFFFFFFFFFFFFF DUP2 GT ISZERO PUSH2 0x181 JUMPI PUSH2 0x180 PUSH2 0xAA JUMP JUMPDEST JUMPDEST PUSH2 0x18D DUP7 DUP3 DUP8 ADD PUSH2 0xBE JUMP JUMPDEST SWAP4 POP SWAP4 POP POP PUSH1 0x20 PUSH2 0x1A0 DUP7 DUP3 DUP8 ADD PUSH2 0x135 JUMP JUMPDEST SWAP2 POP POP SWAP3 POP SWAP3 POP SWAP3 JUMP JUMPDEST PUSH1 0x0 DUP3 DUP3 MSTORE PUSH1 0x20 DUP3 ADD SWAP1 POP SWAP3 SWAP2 POP POP JUMP JUMPDEST DUP3 DUP2 DUP4 CALLDATACOPY PUSH1 0x0 DUP4 DUP4 ADD MSTORE POP POP POP JUMP JUMPDEST PUSH1 0x0 PUSH1 0x1F NOT PUSH1 0x1F DUP4 ADD AND SWAP1 POP SWAP2 SWAP1 POP JUMP JUMPDEST PUSH1 0x0 PUSH2 0x1E7 DUP4 DUP6 PUSH2 0x1AA JUMP JUMPDEST SWAP4 POP PUSH2 0x1F4 DUP4 DUP6 DUP5 PUSH2 0x1BB JUMP JUMPDEST PUSH2 0x1FD DUP4 PUSH2 0x1CA JUMP JUMPDEST DUP5 ADD SWAP1 POP SWAP4 SWAP3 POP POP POP JUMP JUMPDEST PUSH1 0x0 DUP2 SWAP1 POP SWAP2 SWAP1 POP JUMP JUMPDEST PUSH2 0x21B DUP2 PUSH2 0x208 JUMP JUMPDEST DUP3 MSTORE POP POP JUMP JUMPDEST PUSH2 0x22A DUP2 PUSH2 0x114 JUMP JUMPDEST DUP3 MSTORE POP POP JUMP JUMPDEST PUSH1 0x0 PUSH1 0x60 DUP3 ADD SWAP1 POP DUP2 DUP2 SUB PUSH1 0x0 DUP4 ADD MSTORE PUSH2 0x24B DUP2 DUP7 DUP9 PUSH2 0x1DB JUMP JUMPDEST SWAP1 POP PUSH2 0x25A PUSH1 0x20 DUP4 ADD DUP6 PUSH2 0x212 JUMP JUMPDEST PUSH2 0x267 PUSH1 0x40 DUP4 ADD DUP5 PUSH2 0x221 JUMP JUMPDEST SWAP6 SWAP5 POP POP POP POP POP JUMP INVALID LOG2 PUSH5 0x6970667358 0x22 SLT KECCAK256 0xC1 0x25 0xC3 GAS SWAP3 SAR 0xDC CALLDATACOPY 0xE1 LOG2 SAR SWAP8 DUP2 0x49 SWAP5 0x4B GAS 0xDF 0xA6 CALLCODE SWAP2 0x4B 0xE2 PUSH21 0xF2814E6C474D06B64736F6C634300081400330000 "},"methodIdentifiers":{"logAction(string,bytes32)":"e243bbb1"}}}}}