{
  "_format": "hh-sol-artifact-1",
  "contractName": "AINRPToken",
  "sourceName": "contracts/AINRPToken.sol",
  "abi": [
    {
      "inputs": [],
      "stateMutability": "nonpayable",
      "type": "constructor"
    },
    {
      "inputs": [
        {
          "internalType": "address",
          "name": "spender",
          "type": "address"
        },
        {
          "internalType": "uint256",
          "name": "allowance",
          "type": "uint256"
        },
        {
          "internalType": "uint256",
          "name": "needed",
          "type": "uint256"
        }
      ],
      "name": "ERC20InsufficientAllowance",
      "type": "error"
    },
    {
      "inputs": [
        {
          "internalType": "address",
          "name": "sender",
          "type": "address"
        },
        {
          "internalType": "uint256",
          "name": "balance",
          "type": "uint256"
        },
        {
          "internalType": "uint256",
          "name": "needed",
          "type": "uint256"
        }
      ],
      "name": "ERC20InsufficientBalance",
      "type": "error"
    },
    {
      "inputs": [
        {
          "internalType": "address",
          "name": "approver",
          "type": "address"
        }
      ],
      "name": "ERC20InvalidApprover",
      "type": "error"
    },
    {
      "inputs": [
        {
          "internalType": "address",
          "name": "receiver",
          "type": "address"
        }
      ],
      "name": "ERC20InvalidReceiver",
      "type": "error"
    },
    {
      "inputs": [
        {
          "internalType": "address",
          "name": "sender",
          "type": "address"
        }
      ],
      "name": "ERC20InvalidSender",
      "type": "error"
    },
    {
      "inputs": [
        {
          "internalType": "address",
          "name": "spender",
          "type": "address"
        }
      ],
      "name": "ERC20InvalidSpender",
      "type": "error"
    },
    {
      "inputs": [
        {
          "internalType": "address",
          "name": "owner",
          "type": "address"
        }
      ],
      "name": "OwnableInvalidOwner",
      "type": "error"
    },
    {
      "inputs": [
        {
          "internalType": "address",
          "name": "account",
          "type": "address"
        }
      ],
      "name": "OwnableUnauthorizedAccount",
      "type": "error"
    },
    {
      "anonymous": false,
      "inputs": [
        {
          "indexed": true,
          "internalType": "address",
          "name": "owner",
          "type": "address"
        },
        {
          "indexed": true,
          "internalType": "address",
          "name": "spender",
          "type": "address"
        },
        {
          "indexed": false,
          "internalType": "uint256",
          "name": "value",
          "type": "uint256"
        }
      ],
      "name": "Approval",
      "type": "event"
    },
    {
      "anonymous": false,
      "inputs": [
        {
          "indexed": true,
          "internalType": "address",
          "name": "previousOwner",
          "type": "address"
        },
        {
          "indexed": true,
          "internalType": "address",
          "name": "newOwner",
          "type": "address"
        }
      ],
      "name": "OwnershipTransferred",
      "type": "event"
    },
    {
      "anonymous": false,
      "inputs": [
        {
          "indexed": true,
          "internalType": "address",
          "name": "from",
          "type": "address"
        },
        {
          "indexed": true,
          "internalType": "address",
          "name": "to",
          "type": "address"
        },
        {
          "indexed": false,
          "internalType": "uint256",
          "name": "value",
          "type": "uint256"
        }
      ],
      "name": "Transfer",
      "type": "event"
    },
    {
      "inputs": [],
      "name": "MAX_SUPPLY",
      "outputs": [
        {
          "internalType": "uint256",
          "name": "",
          "type": "uint256"
        }
      ],
      "stateMutability": "view",
      "type": "function"
    },
    {
      "inputs": [
        {
          "internalType": "address",
          "name": "owner",
          "type": "address"
        },
        {
          "internalType": "address",
          "name": "spender",
          "type": "address"
        }
      ],
      "name": "allowance",
      "outputs": [
        {
          "internalType": "uint256",
          "name": "",
          "type": "uint256"
        }
      ],
      "stateMutability": "view",
      "type": "function"
    },
    {
      "inputs": [
        {
          "internalType": "address",
          "name": "spender",
          "type": "address"
        },
        {
          "internalType": "uint256",
          "name": "value",
          "type": "uint256"
        }
      ],
      "name": "approve",
      "outputs": [
        {
          "internalType": "bool",
          "name": "",
          "type": "bool"
        }
      ],
      "stateMutability": "nonpayable",
      "type": "function"
    },
    {
      "inputs": [
        {
          "internalType": "address",
          "name": "account",
          "type": "address"
        }
      ],
      "name": "balanceOf",
      "outputs": [
        {
          "internalType": "uint256",
          "name": "",
          "type": "uint256"
        }
      ],
      "stateMutability": "view",
      "type": "function"
    },
    {
      "inputs": [],
      "name": "decimals",
      "outputs": [
        {
          "internalType": "uint8",
          "name": "",
          "type": "uint8"
        }
      ],
      "stateMutability": "view",
      "type": "function"
    },
    {
      "inputs": [],
      "name": "name",
      "outputs": [
        {
          "internalType": "string",
          "name": "",
          "type": "string"
        }
      ],
      "stateMutability": "view",
      "type": "function"
    },
    {
      "inputs": [],
      "name": "owner",
      "outputs": [
        {
          "internalType": "address",
          "name": "",
          "type": "address"
        }
      ],
      "stateMutability": "view",
      "type": "function"
    },
    {
      "inputs": [],
      "name": "renounceOwnership",
      "outputs": [],
      "stateMutability": "nonpayable",
      "type": "function"
    },
    {
      "inputs": [],
      "name": "symbol",
      "outputs": [
        {
          "internalType": "string",
          "name": "",
          "type": "string"
        }
      ],
      "stateMutability": "view",
      "type": "function"
    },
    {
      "inputs": [],
      "name": "totalSupply",
      "outputs": [
        {
          "internalType": "uint256",
          "name": "",
          "type": "uint256"
        }
      ],
      "stateMutability": "view",
      "type": "function"
    },
    {
      "inputs": [
        {
          "internalType": "address",
          "name": "to",
          "type": "address"
        },
        {
          "internalType": "uint256",
          "name": "value",
          "type": "uint256"
        }
      ],
      "name": "transfer",
      "outputs": [
        {
          "internalType": "bool",
          "name": "",
          "type": "bool"
        }
      ],
      "stateMutability": "nonpayable",
      "type": "function"
    },
    {
      "inputs": [
        {
          "internalType": "address",
          "name": "from",
          "type": "address"
        },
        {
          "internalType": "address",
          "name": "to",
          "type": "address"
        },
        {
          "internalType": "uint256",
          "name": "value",
          "type": "uint256"
        }
      ],
      "name": "transferFrom",
      "outputs": [
        {
          "internalType": "bool",
          "name": "",
          "type": "bool"
        }
      ],
      "stateMutability": "nonpayable",
      "type": "function"
    },
    {
      "inputs": [
        {
          "internalType": "address",
          "name": "newOwner",
          "type": "address"
        }
      ],
      "name": "transferOwnership",
      "outputs": [],
      "stateMutability": "nonpayable",
      "type": "function"
    }
  ],
  "bytecode": "0x60806040523480156200001157600080fd5b503360405180606001604052806026815260200162001a74602691396040518060400160405280600581526020017f41494e5250000000000000000000000000000000000000000000000000000000815250816003908162000074919062000731565b50806004908162000086919062000731565b505050600073ffffffffffffffffffffffffffffffffffffffff168173ffffffffffffffffffffffffffffffffffffffff1603620000fe5760006040517f1e4fbdf7000000000000000000000000000000000000000000000000000000008152600401620000f591906200085d565b60405180910390fd5b6200010f816200013460201b60201c565b506200012e336b033b2e3c9fd0803ce8000000620001fa60201b60201c565b6200094f565b6000600560009054906101000a900473ffffffffffffffffffffffffffffffffffffffff16905081600560006101000a81548173ffffffffffffffffffffffffffffffffffffffff021916908373ffffffffffffffffffffffffffffffffffffffff1602179055508173ffffffffffffffffffffffffffffffffffffffff168173ffffffffffffffffffffffffffffffffffffffff167f8be0079c531659141344cd1fd0a4f28419497f9722a3daafe3b4186f6b6457e060405160405180910390a35050565b600073ffffffffffffffffffffffffffffffffffffffff168273ffffffffffffffffffffffffffffffffffffffff16036200026f5760006040517fec442f050000000000000000000000000000000000000000000000000000000081526004016200026691906200085d565b60405180910390fd5b62000283600083836200028760201b60201c565b5050565b600073ffffffffffffffffffffffffffffffffffffffff168373ffffffffffffffffffffffffffffffffffffffff1603620002dd578060026000828254620002d09190620008a9565b92505081905550620003b3565b60008060008573ffffffffffffffffffffffffffffffffffffffff1673ffffffffffffffffffffffffffffffffffffffff168152602001908152602001600020549050818110156200036c578381836040517fe450d38c0000000000000000000000000000000000000000000000000000000081526004016200036393929190620008f5565b60405180910390fd5b8181036000808673ffffffffffffffffffffffffffffffffffffffff1673ffffffffffffffffffffffffffffffffffffffff16815260200190815260200160002081905550505b600073ffffffffffffffffffffffffffffffffffffffff168273ffffffffffffffffffffffffffffffffffffffff1603620003fe57806002600082825403925050819055506200044b565b806000808473ffffffffffffffffffffffffffffffffffffffff1673ffffffffffffffffffffffffffffffffffffffff168152602001908152602001600020600082825401925050819055505b8173ffffffffffffffffffffffffffffffffffffffff168373ffffffffffffffffffffffffffffffffffffffff167fddf252ad1be2c89b69c2b068fc378daa952ba7f163c4a11628f55a4df523b3ef83604051620004aa919062000932565b60405180910390a3505050565b600081519050919050565b7f4e487b7100000000000000000000000000000000000000000000000000000000600052604160045260246000fd5b7f4e487b7100000000000000000000000000000000000000000000000000000000600052602260045260246000fd5b600060028204905060018216806200053957607f821691505b6020821081036200054f576200054e620004f1565b5b50919050565b60008190508160005260206000209050919050565b60006020601f8301049050919050565b600082821b905092915050565b600060088302620005b97fffffffffffffffffffffffffffffffffffffffffffffffffffffffffffffffff826200057a565b620005c586836200057a565b95508019841693508086168417925050509392505050565b6000819050919050565b6000819050919050565b6000620006126200060c6200060684620005dd565b620005e7565b620005dd565b9050919050565b6000819050919050565b6200062e83620005f1565b620006466200063d8262000619565b84845462000587565b825550505050565b600090565b6200065d6200064e565b6200066a81848462000623565b505050565b5b8181101562000692576200068660008262000653565b60018101905062000670565b5050565b601f821115620006e157620006ab8162000555565b620006b6846200056a565b81016020851015620006c6578190505b620006de620006d5856200056a565b8301826200066f565b50505b505050565b600082821c905092915050565b60006200070660001984600802620006e6565b1980831691505092915050565b6000620007218383620006f3565b9150826002028217905092915050565b6200073c82620004b7565b67ffffffffffffffff811115620007585762000757620004c2565b5b62000764825462000520565b6200077182828562000696565b600060209050601f831160018114620007a9576000841562000794578287015190505b620007a0858262000713565b86555062000810565b601f198416620007b98662000555565b60005b82811015620007e357848901518255600182019150602085019450602081019050620007bc565b86831015620008035784890151620007ff601f891682620006f3565b8355505b6001600288020188555050505b505050505050565b600073ffffffffffffffffffffffffffffffffffffffff82169050919050565b6000620008458262000818565b9050919050565b620008578162000838565b82525050565b60006020820190506200087460008301846200084c565b92915050565b7f4e487b7100000000000000000000000000000000000000000000000000000000600052601160045260246000fd5b6000620008b682620005dd565b9150620008c383620005dd565b9250828201905080821115620008de57620008dd6200087a565b5b92915050565b620008ef81620005dd565b82525050565b60006060820190506200090c60008301866200084c565b6200091b6020830185620008e4565b6200092a6040830184620008e4565b949350505050565b6000602082019050620009496000830184620008e4565b92915050565b611115806200095f6000396000f3fe608060405234801561001057600080fd5b50600436106100cf5760003560e01c806370a082311161008c57806395d89b411161006657806395d89b4114610204578063a9059cbb14610222578063dd62ed3e14610252578063f2fde38b14610282576100cf565b806370a08231146101ac578063715018a6146101dc5780638da5cb5b146101e6576100cf565b806306fdde03146100d4578063095ea7b3146100f257806318160ddd1461012257806323b872dd14610140578063313ce5671461017057806332cb6b0c1461018e575b600080fd5b6100dc61029e565b6040516100e99190610d69565b60405180910390f35b61010c60048036038101906101079190610e24565b610330565b6040516101199190610e7f565b60405180910390f35b61012a610353565b6040516101379190610ea9565b60405180910390f35b61015a60048036038101906101559190610ec4565b61035d565b6040516101679190610e7f565b60405180910390f35b61017861038c565b6040516101859190610f33565b60405180910390f35b610196610395565b6040516101a39190610ea9565b60405180910390f35b6101c660048036038101906101c19190610f4e565b6103a5565b6040516101d39190610ea9565b60405180910390f35b6101e46103ed565b005b6101ee610401565b6040516101fb9190610f8a565b60405180910390f35b61020c61042b565b6040516102199190610d69565b60405180910390f35b61023c60048036038101906102379190610e24565b6104bd565b6040516102499190610e7f565b60405180910390f35b61026c60048036038101906102679190610fa5565b6104e0565b6040516102799190610ea9565b60405180910390f35b61029c60048036038101906102979190610f4e565b610567565b005b6060600380546102ad90611014565b80601f01602080910402602001604051908101604052809291908181526020018280546102d990611014565b80156103265780601f106102fb57610100808354040283529160200191610326565b820191906000526020600020905b81548152906001019060200180831161030957829003601f168201915b5050505050905090565b60008061033b6105ed565b90506103488185856105f5565b600191505092915050565b6000600254905090565b6000806103686105ed565b9050610375858285610607565b61038085858561069c565b60019150509392505050565b60006012905090565b6b033b2e3c9fd0803ce800000081565b60008060008373ffffffffffffffffffffffffffffffffffffffff1673ffffffffffffffffffffffffffffffffffffffff168152602001908152602001600020549050919050565b6103f5610790565b6103ff6000610817565b565b6000600560009054906101000a900473ffffffffffffffffffffffffffffffffffffffff16905090565b60606004805461043a90611014565b80601f016020809104026020016040519081016040528092919081815260200182805461046690611014565b80156104b35780601f10610488576101008083540402835291602001916104b3565b820191906000526020600020905b81548152906001019060200180831161049657829003601f168201915b5050505050905090565b6000806104c86105ed565b90506104d581858561069c565b600191505092915050565b6000600160008473ffffffffffffffffffffffffffffffffffffffff1673ffffffffffffffffffffffffffffffffffffffff16815260200190815260200160002060008373ffffffffffffffffffffffffffffffffffffffff1673ffffffffffffffffffffffffffffffffffffffff16815260200190815260200160002054905092915050565b61056f610790565b600073ffffffffffffffffffffffffffffffffffffffff168173ffffffffffffffffffffffffffffffffffffffff16036105e15760006040517f1e4fbdf70000000000000000000000000000000000000000000000000000000081526004016105d89190610f8a565b60405180910390fd5b6105ea81610817565b50565b600033905090565b61060283838360016108dd565b505050565b600061061384846104e0565b90507fffffffffffffffffffffffffffffffffffffffffffffffffffffffffffffffff8110156106965781811015610686578281836040517ffb8f41b200000000000000000000000000000000000000000000000000000000815260040161067d93929190611045565b60405180910390fd5b610695848484840360006108dd565b5b50505050565b600073ffffffffffffffffffffffffffffffffffffffff168373ffffffffffffffffffffffffffffffffffffffff160361070e5760006040517f96c6fd1e0000000000000000000000000000000000000000000000000000000081526004016107059190610f8a565b60405180910390fd5b600073ffffffffffffffffffffffffffffffffffffffff168273ffffffffffffffffffffffffffffffffffffffff16036107805760006040517fec442f050000000000000000000000000000000000000000000000000000000081526004016107779190610f8a565b60405180910390fd5b61078b838383610ab4565b505050565b6107986105ed565b73ffffffffffffffffffffffffffffffffffffffff166107b6610401565b73ffffffffffffffffffffffffffffffffffffffff1614610815576107d96105ed565b6040517f118cdaa700000000000000000000000000000000000000000000000000000000815260040161080c9190610f8a565b60405180910390fd5b565b6000600560009054906101000a900473ffffffffffffffffffffffffffffffffffffffff16905081600560006101000a81548173ffffffffffffffffffffffffffffffffffffffff021916908373ffffffffffffffffffffffffffffffffffffffff1602179055508173ffffffffffffffffffffffffffffffffffffffff168173ffffffffffffffffffffffffffffffffffffffff167f8be0079c531659141344cd1fd0a4f28419497f9722a3daafe3b4186f6b6457e060405160405180910390a35050565b600073ffffffffffffffffffffffffffffffffffffffff168473ffffffffffffffffffffffffffffffffffffffff160361094f5760006040517fe602df050000000000000000000000000000000000000000000000000000000081526004016109469190610f8a565b60405180910390fd5b600073ffffffffffffffffffffffffffffffffffffffff168373ffffffffffffffffffffffffffffffffffffffff16036109c15760006040517f94280d620000000000000000000000000000000000000000000000000000000081526004016109b89190610f8a565b60405180910390fd5b81600160008673ffffffffffffffffffffffffffffffffffffffff1673ffffffffffffffffffffffffffffffffffffffff16815260200190815260200160002060008573ffffffffffffffffffffffffffffffffffffffff1673ffffffffffffffffffffffffffffffffffffffff168152602001908152602001600020819055508015610aae578273ffffffffffffffffffffffffffffffffffffffff168473ffffffffffffffffffffffffffffffffffffffff167f8c5be1e5ebec7d5bd14f71427d1e84f3dd0314c0f7b2291e5b200ac8c7c3b92584604051610aa59190610ea9565b60405180910390a35b50505050565b600073ffffffffffffffffffffffffffffffffffffffff168373ffffffffffffffffffffffffffffffffffffffff1603610b06578060026000828254610afa91906110ab565b92505081905550610bd9565b60008060008573ffffffffffffffffffffffffffffffffffffffff1673ffffffffffffffffffffffffffffffffffffffff16815260200190815260200160002054905081811015610b92578381836040517fe450d38c000000000000000000000000000000000000000000000000000000008152600401610b8993929190611045565b60405180910390fd5b8181036000808673ffffffffffffffffffffffffffffffffffffffff1673ffffffffffffffffffffffffffffffffffffffff16815260200190815260200160002081905550505b600073ffffffffffffffffffffffffffffffffffffffff168273ffffffffffffffffffffffffffffffffffffffff1603610c225780600260008282540392505081905550610c6f565b806000808473ffffffffffffffffffffffffffffffffffffffff1673ffffffffffffffffffffffffffffffffffffffff168152602001908152602001600020600082825401925050819055505b8173ffffffffffffffffffffffffffffffffffffffff168373ffffffffffffffffffffffffffffffffffffffff167fddf252ad1be2c89b69c2b068fc378daa952ba7f163c4a11628f55a4df523b3ef83604051610ccc9190610ea9565b60405180910390a3505050565b600081519050919050565b600082825260208201905092915050565b60005b83811015610d13578082015181840152602081019050610cf8565b60008484015250505050565b6000601f19601f8301169050919050565b6000610d3b82610cd9565b610d458185610ce4565b9350610d55818560208601610cf5565b610d5e81610d1f565b840191505092915050565b60006020820190508181036000830152610d838184610d30565b905092915050565b600080fd5b600073ffffffffffffffffffffffffffffffffffffffff82169050919050565b6000610dbb82610d90565b9050919050565b610dcb81610db0565b8114610dd657600080fd5b50565b600081359050610de881610dc2565b92915050565b6000819050919050565b610e0181610dee565b8114610e0c57600080fd5b50565b600081359050610e1e81610df8565b92915050565b60008060408385031215610e3b57610e3a610d8b565b5b6000610e4985828601610dd9565b9250506020610e5a85828601610e0f565b9150509250929050565b60008115159050919050565b610e7981610e64565b82525050565b6000602082019050610e946000830184610e70565b92915050565b610ea381610dee565b82525050565b6000602082019050610ebe6000830184610e9a565b92915050565b600080600060608486031215610edd57610edc610d8b565b5b6000610eeb86828701610dd9565b9350506020610efc86828701610dd9565b9250506040610f0d86828701610e0f565b9150509250925092565b600060ff82169050919050565b610f2d81610f17565b82525050565b6000602082019050610f486000830184610f24565b92915050565b600060208284031215610f6457610f63610d8b565b5b6000610f7284828501610dd9565b91505092915050565b610f8481610db0565b82525050565b6000602082019050610f9f6000830184610f7b565b92915050565b60008060408385031215610fbc57610fbb610d8b565b5b6000610fca85828601610dd9565b9250506020610fdb85828601610dd9565b9150509250929050565b7f4e487b7100000000000000000000000000000000000000000000000000000000600052602260045260246000fd5b6000600282049050600182168061102c57607f821691505b60208210810361103f5761103e610fe5565b5b50919050565b600060608201905061105a6000830186610f7b565b6110676020830185610e9a565b6110746040830184610e9a565b949350505050565b7f4e487b7100000000000000000000000000000000000000000000000000000000600052601160045260246000fd5b60006110b682610dee565b91506110c183610dee565b92508282019050808211156110d9576110d861107c565b5b9291505056fea26469706673582212204129636926f84d8ace2f4f67ad4410304ae824ad3a2080e1991ee5ddd9620be964736f6c634300081400334149204964656e746974792026204e6f6e2d5265707564696174696f6e2050726f746f636f6c",
  "linkReferences": {},
  "deployedLinkReferences": {}
}