{
  "_format": "hh-sol-artifact-1",
  "contractName": "AuditLogger",
  "sourceName": "contracts/AuditLogger.sol",
  "abi": [
    {
      "anonymous": false,
      "inputs": [
        {
          "indexed": true,
          "internalType": "address",
          "name": "agent",
          "type": "address"
        },
        {
          "indexed": false,
          "internalType": "string",
          "name": "action",
          "type": "string"
        },
        {
          "indexed": false,
          "internalType": "uint256",
          "name": "timestamp",
          "type": "uint256"
        },
        {
          "indexed": false,
          "internalType": "bytes32",
          "name": "dataHash",
          "type": "bytes32"
        }
      ],
      "name": "ActionLogged",
      "type": "event"
    },
    {
      "inputs": [
        {
          "internalType": "string",
          "name": "action",
          "type": "string"
        },
        {
          "internalType": "bytes32",
          "name": "dataHash",
          "type": "bytes32"
        }
      ],
      "name": "logAction",
      "outputs": [],
      "stateMutability": "nonpayable",
      "type": "function"
    }
  ],
  "bytecode": "0x608060405234801561001057600080fd5b506102a6806100206000396000f3fe608060405234801561001057600080fd5b506004361061002b5760003560e01c8063e243bbb114610030575b600080fd5b61004a6004803603810190610045919061014a565b61004c565b005b3373ffffffffffffffffffffffffffffffffffffffff167fc7aa0176c40b2e6fba6f89dd2e11c0476bb79d148510cb70b3b2f12339cf51f4848442856040516100989493929190610230565b60405180910390a2505050565b600080fd5b600080fd5b600080fd5b600080fd5b600080fd5b60008083601f8401126100d4576100d36100af565b5b8235905067ffffffffffffffff8111156100f1576100f06100b4565b5b60208301915083600182028301111561010d5761010c6100b9565b5b9250929050565b6000819050919050565b61012781610114565b811461013257600080fd5b50565b6000813590506101448161011e565b92915050565b600080600060408486031215610163576101626100a5565b5b600084013567ffffffffffffffff811115610181576101806100aa565b5b61018d868287016100be565b935093505060206101a086828701610135565b9150509250925092565b600082825260208201905092915050565b82818337600083830152505050565b6000601f19601f8301169050919050565b60006101e783856101aa565b93506101f48385846101bb565b6101fd836101ca565b840190509392505050565b6000819050919050565b61021b81610208565b82525050565b61022a81610114565b82525050565b6000606082019050818103600083015261024b8186886101db565b905061025a6020830185610212565b6102676040830184610221565b9594505050505056fea2646970667358221220c125c35a921ddc37e1a21d978149944b5adfa6f2914be2740f2814e6c474d06b64736f6c63430008140033",
  "linkReferences": {},
  "deployedLinkReferences": {}
}